:100000000C945A000C946C000C946C000C946C00D2
:100010000C946C000C946C000C946C000C946C00B0
:100020000C946C000C946C000C946C000C946C00A0
:100030000C946C000C946C000C946C000C946C0090
:100040000C94ED000C946C000C946C000C946C00FF
:100050000C946C000C946C000C946C000C946C0070
:100060000C94D2010C946C000C946C000C946C00F9
:100070000C946C000C946C000C946C000C946C0050
:100080000C946C000C946C000C946C000C946C0040
:100090000C946C000C946C000C946C000C946C0030
:1000A0000C9437010C946C000C946C000C946C0054
:1000B0000C946C0011241FBECFEFD8E0DEBFCDBF83
:1000C00022E0A0E0B1E001C01D92A338B207E1F741
:1000D0000E9414010C9415020C940000DC01862F80
:1000E000F89445B1416055B15E7F37E02D9145B937
:1000F000220F30F055B9000027FB315031F0F7CF17
:10010000000027FB315055B991F737E045B936F07B
:10011000000055B92D91019751F708952D91019740
:1001200055B929F708950E94E3010895E09100016F
:1001300091E09E0F90930001F0E0EE5FFE4F808310
:10014000913C10F0109200010895CF93DF9310922C
:10015000000180910201813039F0823089F52091CF
:10016000030121110BC02CC080ECE3E0F1E0A3EC13
:10017000B1E001900D928A95E1F722C0C4E0D1E090
:10018000215030E0220F331F220F331F285F3E4FD4
:10019000E881F0E0DF01AA0FBB1FAE0FBF1FAD5318
:1001A000BE4FEE5FFE4F81818C93828111968C93BE
:1001B0001197838112968C932496C217D30741F727
:1001C00060EC83EC91E00E946E00DF91CF91089586
:1001D0008FEF8093DB0080E008951F920F920FB69F
:1001E0000F9211242F933F934F935F936F937F93BD
:1001F0008F939F93AF93BF93EF93FF9360EC83EC48
:1002000091E00E946E00FF91EF91BF91AF919F919D
:100210008F917F916F915F914F913F912F910F90AF
:100220000FBE0F901F9018950E9493008AE10E94C4
:100230002901209A40EC50E064E070E083EC91E00A
:100240000E940E0260EC83EC91E00E946E007894B4
:10025000FFCFF894E5E6F0E090819F7D9083880FD2
:100260008093DA0085EC8093DC00789408951F92E7
:100270000F920FB60F9211242F933F934F935F93DA
:100280006F937F938F939F93AF93BF93EF93FF935E
:100290008091D900887F883849F198F4883609F42C
:1002A00068C030F4882309F464C08036F9F064C073
:1002B000883709F45EC08038C9F0803709F05CC027
:1002C00058C0883A79F148F4883909F452C0803A24
:1002D000E1F0803909F050C04CC0803C99F1883C75
:1002E00009F443C0883B09F047C032C08091010146
:1002F000813021F48091DB000E94960085EC809390
:10030000DC0081E0809301013CC0809101018130DB
:1003100019F480E00E94A50085EC8093DC00109227
:1003200001012FC082E08093010180E00E94E8007B
:10033000882321F085EC8093DC0023C085E880933E
:10034000DC001FC01092010185EC8093DC0019C015
:1003500080E00E94E800882321F085EC8093DC0097
:1003600010C085E88093DC000CC085EC8093DC0035
:1003700008C080E98093DC001092010185EC809335
:10038000DC00FF91EF91BF91AF919F918F917F9191
:100390006F915F914F913F912F910F900FBE0F90F2
:1003A0001F9018951F920F920FB60F9211248F93E2
:1003B0008091D90085EC8093DC008F910F900FBE67
:1003C0000F901F9018958DE3809365008FEF8093B9
:1003D000640094B114B895B185B997B1907897B984
:1003E00098B19F6798B99AB11AB89BB18BB98DB182
:1003F000807F8DB98EB18F608EB940E060E881E674
:1004000090E00E94070287E083BF15BE08952FB7D2
:10041000F894FC01608340832FBF0895DC0101C084
:0E0420006D9341505040E0F70895F894FFCFDF
:00000001FF
