:100000000C945A000C9477000C9477000C947700B1
:100010000C9477000C9477000C9477000C94770084
:100020000C9477000C9477000C9477000C94770074
:100030000C9477000C9477000C947E000C9477005D
:100040000C9477000C9477000C9477000C94770054
:100050000C9477000C9477000C9477000C94770044
:100060000C94B3020C9477000C9477000C947700F6
:100070000C9477000C9477000C9477000C94770024
:100080000C9477000C9477000C9477000C94770014
:100090000C9477000C94C2040C9477000C947700B5
:1000A0000C9418020C9477000C9477000C94770051
:1000B0000C94770011241FBECFEFD8E0DEBFCDBF78
:1000C00012E0A0E0B1E0ECE7F3E202C005900D928F
:1000D000A632B107D9F723E0A6E2B2E001C01D9233
:1000E000AC34B207E1F70E940C020C94BC110C94E2
:1000F00000000E94ED040E94DB0308951F920F92FE
:100100000FB60F9211242F933F934F935F936F93EA
:100110007F938F939F93AF93BF93EF93FF930E942F
:100120007504A89AFF91EF91BF91AF919F918F9124
:100130007F916F915F914F913F912F910F900FBEE3
:100140000F901F901895E091280291E09E0F9093D8
:100150002802F0E0EC5BFD4F8083903110F01092AC
:1001600028020895109228020895E091270281E064
:100170008E0F80932702F0E0EE5BFD4F808180932D
:10018000DB0080912702823020F01092270280E06D
:10019000089581E0089580E090E00E94B3048078A3
:1001A00080932602882331F0E2E4F2E080818160CE
:1001B000808305C0E2E4F2E080818E7F808381E06D
:1001C00090E00E94B304807880932602882331F067
:1001D000E2E4F2E080818260808305C0E2E4F2E044
:1001E00080818D7F808382E090E00E94B3048078DC
:1001F00080932602882331F0E2E4F2E0808184607B
:10020000808305C0E2E4F2E080818B7F808383E01D
:1002100090E00E94B304807880932602882331F016
:10022000E2E4F2E080818860808305C0E2E4F2E0ED
:100230008081877F808384E090E00E94B30480788F
:1002400080932602882331F0E2E4F2E0808180612D
:10025000808305C0E2E4F2E080818F7E808385E0C8
:1002600090E00E94B304807880932602882331F0C6
:10027000E2E4F2E080818062808305C0E2E4F2E0A3
:1002800080818F7D808386E090E00E94B304807837
:1002900080932602882331F0E2E4F2E080818064DA
:1002A000808305C0E2E4F2E080818F7B808387E079
:1002B00090E00E94B304807880932602882331F076
:1002C000E2E4F2E080818068808305C0E2E4F2E04D
:1002D00080818F77808388E090E00E94B3048078EB
:1002E00080932602882331F0E2E4F2E0818181608C
:1002F000818305C0E2E4F2E081818E7F818389E021
:1003000090E00E94B304807880932602882331F025
:10031000E2E4F2E081818260818305C0E2E4F2E000
:1003200081818D7F81838AE090E00E94B304807890
:1003300080932602882331F0E2E4F2E08181846038
:10034000818305C0E2E4F2E081818B7F81838BE0D1
:1003500090E00E94B304807880932602882331F0D5
:10036000E2E4F2E081818860818305C0E2E4F2E0AA
:100370008181877F81838CE090E00E94B304807844
:1003800080932602882331F0E2E4F2E081818061EB
:10039000818305C0E2E4F2E081818F7E81838DE07C
:1003A00090E00E94B304807880932602882331F085
:1003B000E2E4F2E081818062818305C0E2E4F2E060
:1003C00081818F7D81838EE090E00E94B3048078EC
:1003D00080932602882331F0E2E4F2E08181806498
:1003E000818305C0E2E4F2E081818F7B81838FE02D
:1003F00090E00E94B304807880932602882331F035
:10040000E2E4F2E08181806881830895E2E4F2E031
:1004100081818F77818308950E94790078940E946A
:100420002F0480912E028130D1F70E94CB00F7CFAC
:100430001F920F920FB60F9211242F933F934F9359
:100440005F936F937F938F939F93AF93BF93EF933C
:10045000FF938091D900887F883849F198F48836D5
:1004600009F468C030F4882309F464C08036F9F0D8
:1004700064C0883709F45EC08038C9F0803709F05D
:100480005CC058C0883A79F148F4883909F452C000
:10049000803AE1F0803909F050C04CC0803C99F1BD
:1004A000883C09F443C0883B09F047C032C08091C2
:1004B0002902813021F48091DB000E94A30085ECA9
:1004C0008093DC0081E0809329023CC08091290266
:1004D000813019F480E00E94B20085EC8093DC004A
:1004E000109229022FC082E08093290280E00E94AE
:1004F000B500882321F085EC8093DC0023C085E8DB
:100500008093DC001FC01092290285EC8093DC00F0
:1005100019C080E00E94B500882321F085EC80930B
:10052000DC0010C085E88093DC000CC085EC809373
:10053000DC0008C080E98093DC001092290285EC81
:100540008093DC00FF91EF91BF91AF919F918F91CC
:100550007F916F915F914F913F912F910F900FBEBF
:100560000F901F9018951F920F920FB60F921124A3
:100570008F938091D90085EC8093DC008F910F9050
:100580000FBE0F901F9018950895CF93C82F0E940B
:1005900039058823E1F38C2F0E9447050E943F050F
:1005A0008111FCCFCF910895EF92FF920F931F938B
:1005B000CF93DF9300D0CDB7DEB780912A028F7042
:1005C00081F400E011E00F2EF3E1EF2EF1E0FF2EB9
:1005D000F02DD8018D918D010E94C502E016F10623
:1005E000C1F785E50E94C50280912A020E94C502DA
:1005F0001A82198289819A81409708F06CC00DE6B1
:1006000011E089819A810E948C04F92E0E94C50212
:100610008F2D0E94C50289819A810E949904F92E2A
:100620000E94C5028F2D0E94C50289819A810E9475
:100630008C047C0189819A810E949904E81AF90A44
:100640008E2D0E94C5028F2D0E94C50289819A813C
:100650000E94A604F92E0E94C5028F2D0E94C50299
:1006600089819A81FC01EE0FFF1F880F991F880F67
:10067000991F880F991F8E0F9F1FD8011296ED9119
:10068000FC911397E80FF91F86810E94C5028981AA
:100690009A810E94B304882324F481E00E94C50259
:1006A00003C080E00E94C50289819A81FC01EE0F9F
:1006B000FF1F8E0F9F1FFC01ED5CFE4F80810E948B
:1006C000C50289819A8101969A83898389819A8159
:1006D000409708F496CF80912D020E94C502809128
:1006E0002A0291E0980F90932A020E94C5028AEA9A
:1006F0000E94C5020F900F90DF91CF911F910F9133
:10070000FF90EF900895EDECF2E0808182608083AD
:100710000895E0912B01F0912C018081882344F40D
:10072000E091CB02F091CC0280818460808303C091
:1007300081E080932E020E94D4020895882324F43D
:1007400081E080932D0209C086FD03C010922D0226
:1007500004C08F708E5F80932D020E94D402089592
:100760000F931F93CF93DF938BEA92E00E940A10BE
:10077000C0E0D0E0BE018DE691E00E940D11BE0107
:100780008DE691E00E942C112196C031D10591F7A0
:100790000BE512E0C0E0A8016C2F8BE291E00E9413
:1007A000C305CF5F0B5F1F4FC031A9F7DF91CF911A
:1007B0001F910F91089588E087BDE5E6F0E0808104
:1007C0008F7E8083409841984298439844984598FA
:1007D00072987398589859985A985B985C985D9855
:1007E0005E985F98EDECF2E0108287E291E09283F0
:1007F000818383E291E0948383838BE191E096830C
:1008000085838FE191E09087878383E191E09287F0
:10081000818787E191E09487838782E69CE09687D1
:10082000858780EB93E0908B87878EE993E0928BAE
:10083000818B83E893E0948B838B168A158A89E8F1
:1008400093E0908F878BCF010E94A8090E94A30993
:100850009093CC028093CB020E94C4020895E09151
:10086000CB02F091CC02808180FF0CC080E00E941E
:10087000070A811107C0E091CB02F091CC02808180
:100880008E7F8083E091CB02F091CC02808181FF4A
:1008900011C00E94570A811103C00E945F0A03C061
:1008A00080E80E949E03E091CB02F091CC0280810F
:1008B0008D7F8083E091CB02F091CC02808182FF1A
:1008C00009C081608083E091CB02F091CC028081ED
:1008D0008B7F80830895EDECF2E0808181608083DE
:1008E00084E190E00E94B805089580912B029091D8
:1008F0002C02449739F410922C0210922B020E9481
:100900006B04089580912B0290912C020196909394
:100910002C0280932B0208959C01220F331F220F7B
:10092000331F820F931FFC01E55AFD4F8181928195
:1009300008959C01220F331F820F931FFC01EE0FBD
:10094000FF1FEA51FD4F8481958108959C01220F7C
:10095000331F220F331F820F931FFC01E55AFD4FF7
:100960008381948108959C01220F331F820F931F6E
:10097000880F991FE0912F01F0913001E80FF91FC6
:10098000808108951F920F920FB60F9211242F931A
:100990003F934F935F936F937F938F939F93AF9307
:1009A000BF93EF93FF930E946C11FF91EF91BF9162
:1009B000AF919F918F917F916F915F914F913F91F7
:1009C0002F910F900FBE0F901F90189524982C9880
:1009D000239A2B980E94280508958DE38093650043
:1009E0008FEF8093640094B114B895B185B997B135
:1009F000907897B998B19F6798B99AB11AB89BB196
:100A00008BB98DB1807F8DB98EB18F608EB940E08A
:100A100060E881E690E00E94140513BE15BE0E94B6
:100A20001B050E94E60408952FB7F894FC0160832B
:100A300040832FBF0895E4E6F0E080818F7D8083BE
:100A400082E084BD95E095BD80936E0080E00895BE
:100A5000E4E6F0E080818F7E80831092CD008CE010
:100A60008093CC001092C80088E08093C90080E099
:100A700008958091C80085FB882780F908958091AA
:100A8000C80086FB882780F991E089270895E8EC63
:100A9000F0E0908195FFFDCF8093CE000895CF9236
:100AA000DF92FF920F931F93CF93DF93EC01AE8100
:100AB000BF81EB01CC0FDD1FC60FD71FCA0FDB1F95
:100AC000FA80FC0144815581E6E0E69F9001E79FB2
:100AD000300D11248A01020F131FF8012281338186
:100AE000F90121813281F80104811581201B310B2C
:100AF000E8812E1B3109EC01EA81FB810081118123
:100B0000FA0140E050E04017510739F14617570706
:100B1000F9F012968C911297F8121AC080818558BC
:100B20008230E8F0C480D58082819381EC01898194
:100B30009A81C816D90660F48C199D09CC91D0E031
:100B4000C817D90728F48C1B9D0B2817390738F0D4
:100B50004F5F5F4F13963696D6CF80E001C081E09D
:100B6000DF91CF911F910F91FF90DF90CF9008956B
:100B700020912F0230913002820F931F9093300208
:100B800080932F0208950097D9F041155105C1F0C7
:100B900026E0629FB0011124DC011496ED91FC91D6
:100BA0001597E60FF71F21E0208314968D919C91F5
:100BB0001597FC01E60FF71F5383428380E00895E9
:100BC0008BE008952F923F924F925F926F927F92A7
:100BD0008F929F92AF92BF92CF92DF92EF92FF924D
:100BE0000F931F93CF93DF93009709F47DC3EC011C
:100BF000A12CB12C812C912C212CD12C33E0C32E93
:100C000045E8642E56E8752E67E0362E72E0472ED2
:100C1000E8E05E2EEA81FB81808191818816990649
:100C200008F0A5C17501EE0CFF1C0C811D810E0D95
:100C30001F1DD8018C91843009F4A2C038F4823091
:100C400001F108F049C0813059F08AC1853809F4B2
:100C5000C4C0863809F4F8C0873009F081C139C1B1
:100C6000D8011296ED91FC91139780818E7109F055
:100C700069C14C928C819D81FC01EE0DFF1D51825A
:100C800061C1F8012181222329F10280F381E02D45
:100C9000253020F081819281D8010EC0D8011496B0
:100CA0008D919C911597418152818417950769F028
:100CB0004817590730F4019715969C938E93149713
:100CC00004C00196F801958384832150D8011196C0
:100CD0002C9338C1F80130C1D80114962D913C9164
:100CE000159712968D919C911397DC0111964D9159
:100CF0005C9112972417350709F432C18E819F81C8
:100D000042175307E0F4241B350BDC01AA0DBB1D71
:100D10008C9190E0058002C0959587950A94E2F742
:100D200099272817390708F41BC18481882309F4FF
:100D300017C1F8013082EA81FB8124811AC0FC01CD
:100D4000EA0DFB1D421B530B808190E048175907A9
:100D500008F406C18281882331F0B401CE010E94DB
:100D60004F058111FDC0E4E0D801EC93EA81FB81DD
:100D700022818C819D81FC01EE0DFF1D2183E2C04B
:100D8000D80114962D913C9115971296ED91FC91F6
:100D90001397818192818217930710F4CC92D7C068
:100DA000EE81FF81EA0DFB1D821B930B208130E059
:100DB0002817390708F0C9C08281882331F0B401AF
:100DC000CE010E944F058111CBC0F801818188239B
:100DD00009F468C081508183B5C0A881B98180853C
:100DE00013968C93EC81FD81EE0DFF1D448155819E
:100DF000A281B38111968D919C91129784179507CA
:100E0000C0F0AE81BF81AA0DBB1D6C91262F30E0D2
:100E100011967C917F5F02C0359527957A95E2F710
:100E2000841B950B621B262F30E02817390708F426
:100E300095C07082EA81FB8122818C819D81FC01B9
:100E4000EE0DFF1D218342C0D80114966D917C9157
:100E500015971296ED91FC911397218132812617F7
:100E6000370758F411968C911197811102C0CC92DA
:100E700075C08150F801818371C0EE81FF81EA0D58
:100E8000FB1D8081482F50E091819F5F02C05595E6
:100E900047959A95E2F7261B370B841B90E0821743
:100EA000930760F4D8016C92EA81FB8123818C81E5
:100EB0009D81FC01EE0DFF1D218350C0F801818151
:100EC000811102C0C0824AC08150818322242394B0
:100ED00039C0D80114962D913C91159712968D9199
:100EE0009C911397DC0111968D919C91129782171A
:100EF000930758F5281B390BAE81BF81AA0DBB1D86
:100F00008C9190E0058002C0959587950A94E2F750
:100F1000992728173907C8F0D80111968C91119795
:100F200081110CC0E1E0EC938C819D81FC01EE0D00
:100F3000FF1D0280F381E02DC08212C08150D801D4
:100F400011968C93DD24D3940BC0F801C0828C8160
:100F50009D81FC01EE0DFF1D118202C0222423940D
:100F6000FFEF8F1A9F0A83E0A80EB11C53CEE881D1
:100F7000F981808187FF23C040E050E020E030E02D
:100F8000EA81FB81808191812817390798F4EC81EF
:100F9000FD81E40FF51FA281B3818C9180FD05C016
:100FA0009081977F11F081608C932F5F3F4F4A5F54
:100FB0005F4FE6CFE881F98180818F778083D11000
:100FC00007C0E881F98121106FC080818E7F6EC0DB
:100FD000EA81FB8181858823A1F3E881F981808101
:100FE00080688083EA81FB818185813051F740E010
:100FF00050E020E030E096E0D92EEA81FB8160816C
:10100000718126173707E8F60C811D81FA01EE0F72
:10101000FF1FE00FF11F8081982F977FA1F1853886
:1010200011F08330B1F5EE80FF80D701A40FB51F1A
:101030001296BC90BB2039F180E090E0C12C86175D
:101040009707F8F428173907D1F0D89ED001D99E18
:10105000B00D1124A00FB11FAC91A43011F0A6382F
:1010600071F4DC01AA0FBB1FA80FB91FAE0DBF1D85
:101070001296AC91BA1203C0CB01CC24C394019652
:10108000DECFC11006C00280F381E02D80818E7F0B
:1010900005C00280F381E02D8081816080832F5F15
:1010A0003F4F4D5F5F4FA9CF8081816080838091EA
:1010B0002F0290913002E881F98121813281A901CA
:1010C00048535F4F4817590738F4821B930BAA24E3
:1010D000A394A3E0BA2E44C08217930710F080E0D7
:1010E00004C1821B930B0197893C9105C0F3EFCF9C
:1010F000885C9109E881F9812181328128533F4F31
:10110000328321832381211196C02481222311F06F
:1011100021502483E881F9812581222311F0215077
:1011200025838A809B80D40116962C9116972111D5
:101130001BC08A809B80F4012781211148C0EA816D
:10114000FB812381222361F020E030E0A0E0B0E0C9
:10115000EA81FB8140815181A417B50708F46EC074
:10116000893C910528F6BBCF08811981F8012481BB
:101170002111DFCFED90FC9060E070E040E050E0A6
:101180004E155F05F1F0EC81FD81E60FF71F208120
:10119000233011F0283081F424813581C280D3803E
:1011A000D6011196CD90DC9012972C153D0520F4B8
:1011B0002F5F3F4F358324834F5F5F4F6A5F7F4FC1
:1011C000DFCFF4012681D80114962C93B2CF088189
:1011D0001981D80115962C912111B1CFE080F180B1
:1011E00060E070E040E050E04E155F05F1F0EC810A
:1011F000FD81E60FF71F2081233011F0283081F4A4
:1012000024813581C280D380D6011196CD90DC90A7
:101210001297C216D30620F4215031093583248356
:101220004F5F5F4F6A5F7F4FDFCFF4012781D801A7
:1012300015962C9384CF2150238381CFA901440F8D
:10124000551FEC81FD81E40FF51F6081653809F0C1
:1012500047C06181662319F06150618341C0A0825B
:101260006C817D81FB01E40FF51F0280F381E02D8D
:10127000B082EE81FF81E20FF31FD280DD2081F189
:1012800040E050E000E010E0EA81FB816081718184
:101290000617170728F5EE81FF81E40FF51F62811D
:1012A000D61219C0BA01660F771FEC81FD814F017C
:1012B000860E971EF401E280F380F701F080F0FEC5
:1012C0000AC0F401A082EC81FD81E60FF71F0280C5
:1012D000F381E02DB0820F5F1F4F4D5F5F4FD4CF82
:1012E00011962D5F3F4F34CF8BE0DF91CF911F914F
:1012F0000F91FF90EF90DF90CF90BF90AF909F90B5
:101300008F907F906F905F904F903F902F900895B7
:1013100095E090933302E0914603F09147030188F2
:10132000F289E02D309709F00994FFCFE091460350
:10133000F09147030388F489E02D309709F0099470
:1013400080E40C94880980914603909147030895A6
:10135000CF93909347038093460380913302853067
:1013600039F0823028F080913102882371F140C039
:1013700010923102C0E0A0914603B09147038C2F38
:1013800090E0880F991F1196ED91FC911297E80F4C
:10139000F91F0190F081E02D309729F317962D91D8
:1013A0003C911897D901A80FB91F8D919C9109956F
:1013B000882329F0809131028F5F80933102CF5FC3
:1013C000809131028823B9F2CECF82E0809333023C
:1013D000E0914603F09147030784F089E02D3097B0
:1013E00011F0099508C085E08093330281E001C0C7
:1013F0008F5F8093310280913102882331F0109207
:10140000310280E8CF910C948809CF9108951F9301
:10141000CF93DF93182FA0914603B0914703159601
:101420002D913C911697D0E0F901ED0FF11DED0FD4
:10143000F11D80819181892B11F0DF5FF5CF5396EB
:101440008D919C915497892B49F1812F90E0880FC1
:10145000991FF901E80FF91F0190F081E02D3097F5
:10146000E9F01B962D913C911C97D901A80FB91F4B
:101470008D919C91009791F066E979E00995C82FCC
:10148000811106C083E0809333021092320203C0C0
:1014900082E0809333021D1728F001C0C2E082E889
:1014A0000E9488098C2FDF91CF911F910895E091C0
:1014B0004603F09147030584F685E02D09941F93B8
:1014C000CF93DF931F92CDB7DEB71982E091460329
:1014D000F09147030588F689E02D309749F082E0C6
:1014E00080933302CE010196099583E08093330205
:1014F0008091310281112CC01981111129C084E021
:1015000080933302A0914603B09147038091320249
:1015100090E0880F991F1396ED91FC911497E80FB6
:10152000F91F0190F081E02D19962D913C911A97A9
:10153000309781F0D901A80FB91F8D919C91099521
:1015400081113EC0809132028F5F80933202DACFE8
:1015500010E03DC010923202F901E10FF11DE10FE0
:10156000F11D0190F081E02D309759F00190F0814C
:10157000E02D808187FF03C09C9194609C931F5F46
:10158000EBCF1093320282E0809333025796ED91B5
:10159000FC915897309711F0099505C08091310260
:1015A0008F5F8093310210E080913102882379F0BF
:1015B000109231028091320280640E94880907C033
:1015C000809131028F5F8093310213E0EDCF812F44
:1015D0000F90DF91CF911F910895CF93DF93A0914A
:1015E0004803B091490325E0AC01249FC001259F29
:1015F000900D11241496ED91FC911597E80FF91FA9
:10160000818192818617970709F464C0861797072E
:1016100018F4681B790B04C09C01261B370BB90119
:101620000D90BC91A02D12968C911297803411F4DC
:10163000769567956538710508F04AC06630710582
:1016400008F448C083819481482F4F70FC01EE2735
:10165000F073EF2FFF27E295EF705FEC5E9F900134
:101660005F9F300D1124FC01EE27FF70EF2FFF2745
:1016700055E15E9FE0015F9FD00D11242C0F3D1FAF
:10168000807F9927E3E096958795EA95E1F7280F03
:10169000391F463020F02F5F3F4F4550FACF139649
:1016A000EC91E073F0E083E0F695E7958A95E1F739
:1016B000E85EFD4F80819181689FA001699F500D78
:1016C000789F500D112481E02417350720F002C0C7
:1016D00081E001C080E0DF91CF91089580913B02CD
:1016E00090913C02A0914803B0914903ED91FC9187
:1016F00011974081518125E0289FB001299F700DED
:10170000112420E030E084179507A8F41496ED9199
:10171000FC911597E20FF31FE60FF71FE0812B5F97
:101720003F4FE0FD02C00196EECF90933C028093C4
:101730003B0280E0089510923C0210923B0281E04F
:1017400008954AE0489F9001499F300D1124E0918F
:101750004803F09149030280F381E02DE20FF31F6B
:1017600042814093F800E0914803F09149030280E0
:10177000F381E02DE20FF31F43814093F900E091E4
:101780004803F09149030280F381E02DE20FF31F3B
:1017900044814093FA00E0914803F09149030280AC
:1017A000F381E02DE20FF31F40814093F200E091BE
:1017B0004803F09149030280F381E02DE20FF31F0B
:1017C00041814093F30065E0689FA001699F500D3F
:1017D0001124E0914803F09149030480F581E02D44
:1017E000E40FF51F83818093E500E0914803F091B9
:1017F00049030480F581E02DE40FF51F8381948176
:1018000088279F739093E600A0914803B091490305
:101810001496ED91FC911597E40FF51F808181FDE1
:10182000608314968D919C911597FC01E40FF51F30
:1018300080818C7171F41296ED91FC911397E20FF7
:10184000F31FE085E295EF70F0E0E05EFD4F8081F0
:1018500001C08FE38093E700E0914803F0914903D2
:101860000280F381E02DE20FF31F86818B3F10F49D
:101870008C5F01C08FEF8093E800E0914803F09106
:1018800049030280F381E02DE20FF31F8781807FFF
:101890009185892B8093E400E0914803F0914903FE
:1018A00082819381FC01E20FF31F87818F70809307
:1018B000E10082E18093E0008091E9008160809303
:1018C000E90008952F923F924F925F926F927F921C
:1018D0008F929F92AF92BF92CF92DF92EF92FF9240
:1018E0000F931F93CF93DF9300D000D01F92CDB7FB
:1018F000DEB780913A02882309F4DDC200914803E3
:101900001091490320914A0330914B033B832A8372
:10191000E12CF12CA12CB12C212C312C1982442446
:101920004A945524539477247394D801ED91FC91F3
:10193000808191812816390608F0B9C2AA81BB813D
:101940004D915D91BB83AA83D8011496CD90DC9014
:101950001597CA0CDB1CD6018C918C7190E0969582
:101960008795969587958230910509F435C228F4BC
:10197000009759F0019711F18FC28330910509F456
:10198000ECC1049709F474C187C2D8011296ED9195
:10199000FC911397EE0DFF1D90859F708185981720
:1019A00010F4891B01C080E09A0102C0369527958A
:1019B0008A95E2F7F601328321836FC2D80112962D
:1019C0008D919C911397DC01AE0DBF1D9A01199664
:1019D0000C9002C0369527950A94E2F73D832C833C
:1019E000D60112963C932E93119713964D915C91CC
:1019F00014972115B2E03B0730F02F5F31403D8353
:101A00002C8381E008C092018C819D81281B390BB9
:101A10003D832C8380E09281903449F4AC81BD8178
:101A2000B695A795BD83AC83882319F00CC0882395
:101A300051F04F3FBFE35B0741F481E8F60180833B
:101A4000FEE0F98309C091E001C090E02C813D8166
:101A50002A30310508F065C0D8011496ED91FC914B
:101A60001597EA0DFB1D808186FD4FC087FD4EC096
:101A7000D8018D919C91DC0113968C9183708330F9
:101A800091F4D8011296ED91FC911397EE0DFF1D84
:101A9000BFEFB683D8011496ED91FC911597EA0D2E
:101AA000FB1DB1E130C0823091F4D8011296ED9166
:101AB000FC911397EE0DFF1D8781807F878314961D
:101AC000ED91FC911597EA0DFB1DB9E01CC081302A
:101AD000E1F4D8011296ED91FC911397EE0DFF1DE4
:101AE00087818F7087831296ED91FC911397EE0D8D
:101AF000FF1D8781806387831496ED91FC91159774
:101B0000EA0DFB1DBDE0B08301C07082D8011496C0
:101B1000ED91FC911597EA0DFB1D5F735483438390
:101B2000BCC19A0122273073832F82958F709A014E
:101B300022273F70632F9A01207F332754E0369588
:101B400027955A95E1F74F70911142C0AC81BD8144
:101B5000A03DB10590F0833081F08F5FEC81FD8175
:101B6000EF5CF109FD83EC83F1CF6F3061F06F5FC3
:101B7000EC81FD817597FD83EC83AC81BD81569727
:101B8000A0F76F3079F4833019F08F5F65E00AC0F9
:101B90006FE008C02F3069F02F5FEC81FD81329734
:101BA000FD83EC83AC81BD811397A0F72F3009F042
:101BB00089C16F3009F43FC06F5F25E083C188237E
:101BC000A9F08150EC81FD81EF5CF109FD83EC838C
:101BD000AC81BD81A03DB10590F708C0662361F0DE
:101BE0006150EC81FD817597FD83EC83AC81BD81F3
:101BF0005697A0F761110FC0882319F081506AE051
:101C00000AC060E008C0222361F02150EC81FD8110
:101C10003297FD83EC83AC81BD811397A0F721112E
:101C200014C0662309F454C161502AE0EC81FD819F
:101C3000339770F60AC0833009F043C1EC81FD810F
:101C4000339708F43BC14FE02FE090E0982F8827AE
:101C50009295907F962B842BF0E12F9F9001112479
:101C6000822B932BD60114969C938E93139715C1B8
:101C7000F801828093808E0C9F1CFA01D401199682
:101C80000C90199702C0F695E7950A94E2F7FD8348
:101C9000EC8316966C90FFEF6F120FC0EC81FD8104
:101CA000D6011296FC93EE931197D40116968C915F
:101CB00016978F7716968C9342C0D12C262D30E044
:101CC000C9010D2C02C0969587950A94E2F780FF12
:101CD00003C08D2DD12C01C088E08F5F883010F4B7
:101CE000D82EEECF6C817D81C1010E94ED0A882340
:101CF00051F081E090E00D2C01C0880F0A94EAF7C2
:101D00008629F4018683D801DD2091F01296ED91A9
:101D1000FC911397EE0DFF1DDA9481E090E001C075
:101D2000880FDA94EAF7809596818923868307C025
:101D30001496ED91FC911597EA0DFB1D7082D80168
:101D40001496ED91FC911597EA0DFB1D8081813071
:101D500009F0A3C02C813D8187C0D8011296ED9176
:101D6000FC911397EE0DFF1D9A01018402C0369578
:101D700027950A94E2F73D832C83978092942FE075
:101D8000922233E0931691F06C817D81C1010E9413
:101D9000ED0A811104C09394D6017C9209C0911080
:101DA00003C0F601708204C09A9402C092E0992E9A
:101DB000D8011296ED91FC911397EE0DFF1D8781CE
:101DC0008F7087831296ED91FC911397EE0DFF1D96
:101DD000929480EF982238C0D8011296ED91FC9130
:101DE0001397EE0DFF1D9A01018402C036952795C9
:101DF0000A94E2F73D832C8387818F70982E91F0AF
:101E0000B901C1010E94ED0A811104C09A94D60162
:101E10007C920AC0B3E09B1203C0F601708204C03A
:101E2000939402C099249394D8011296ED91FC9159
:101E30001397EE0DFF1D8781807F87831296ED91AA
:101E4000FC911397EE0DFF1D8781982A97821496B7
:101E5000ED91FC911597EA0DFB1D2C813D8132839C
:101E6000218380818130C9F4211542E0340728F0B4
:101E70002F5F31403D832C8307C0C201AC81BD81FF
:101E80008A1B9B0B9D838C832C813D812B303105DC
:101E900020F035E4308301C0FFCF4FEF241A340A1D
:101EA00085E0A80EB11C9AE0E90EF11C3ECD82E05F
:101EB00080933A020FC0B3E0B9830CC02FE04FE02B
:101EC000C4CE2FE0AC81BD81139708F03FCEBDCECC
:101ED00020E0BBCE89810F900F900F900F900F9054
:101EE000DF91CF911F910F91FF90EF90DF90CF90F6
:101EF000BF90AF909F908F907F906F905F904F902A
:101F00003F902F9008958F929F92AF92BF92CF9261
:101F1000DF92EF92FF92CF93DF93009709F46CC0AA
:101F2000DC01ED91FC91C080D180E12CF12CA0E08E
:101F3000B0E040E050E0BA0120E030E0AC15BD0573
:101F4000B1F0EC01EA81FB81EE0DFF1DA080B180B4
:101F50002A293B2982809380A480B5804829592969
:101F60006A297B291196DAE0ED0EF11CE7CF4115C5
:101F700051056105710509F441C0E0913A026A0119
:101F80007B01CC24EE24FF24DB01CA01882799279A
:101F9000BB27E11115C02093F0003093F10040936E
:101FA000F400CD2CDE2CEF2CFF24C092F500CD01E7
:101FB000AA27BB278093F60081E080933A021AC0DB
:101FC000E091F0002E2B2093F0002091F100232BC4
:101FD0002093F1002091F400422B4093F4002091D3
:101FE000F5002D292093F5002091F600822F8A2BF1
:101FF0008093F60080E003C08BE001C082E0DF91B7
:10200000CF91FF90EF90DF90CF90BF90AF909F90D7
:102010008F900895009731F090934B0380934A037B
:1020200080E008958BE00895CF93DF9300D000D037
:10203000CDB7DEB710923E0210923F0210924002DE
:10204000109241026115710509F4DBC0009709F493
:10205000D8C020913A02222309F4D5C0243009F0D7
:1020600093C010923D028091E90080FF8BC02091C7
:10207000E80030E0A6E0B0E00E94AD1160933E02BF
:1020800070933F0280934002909341022091E300BD
:102090002F70DC01CB01820F911DA11DB11D80931A
:1020A0003E0290933F02A0934002B09341022091E0
:1020B000E400277004C0880F991FAA1FBB1F2A9530
:1020C000D2F70E96A11DB11D80933E0290933F0260
:1020D000A0934002B09341022091E100237004C01C
:1020E000880F991FAA1FBB1F2A95D2F722E0B69529
:1020F000A795979587952A95D1F780933E0290935F
:102100003F02A0934002B093410219821A821B82BF
:102110001C8221E049815A816B817C8148175907D3
:102120006A077B07B0F430913D02332329F089839D
:102130009A83AB83BC8320E049815A816B817C8187
:102140004F5F5F4F6F4F7F4F49835A836B837C8311
:10215000E1CF2223B9F08091E90080FF13C01092F3
:10216000E000000082E18093E000000081E08093C5
:10217000E9008091360290913702019690933702E0
:102180008093360281E042C09093490380934803D4
:102190007093350260933402DC01ED91FC918281F1
:1021A000803411F488E003C0803879F58AE08093A8
:1021B000E200E0914803F09149030190F081E02DA5
:1021C0008481803108F080E18093E30081E084BB6A
:1021D0008093740010923C0210923B020E946E0B9E
:1021E00081110BC084E080933A0280913B02909170
:1021F0003C020E94A10B80E009C082E080933A0279
:1022000005C08BE003C083E001C082E00F900F9017
:102210000F900F90DF91CF9108950097C9F0DC01E6
:10222000ED91FC911197208131812617370790F0AD
:1022300045E0469F9001479F300D11241496ED9183
:10224000FC911597E20FF31F81E0808380E00895F1
:102250008BE0089582E008950097D1F1DC01ED91C3
:10226000FC911197208131812617370798F122813F
:102270001496ED91FC911597203459F485E0869FD2
:10228000D001879FB00D1124AE0FBF1F84E392E0F1
:102290000CC0203881F485E0869FD001879FB00D67
:1022A0001124AE0FBF1F87E695E014969C938E9382
:1022B000139780E001C082E095E0969F9001979F80
:1022C000300D1124E20FF31F9081926090830895E6
:1022D0008BE0089582E008951092E00081E0809301
:1022E0003D028091EE006091EF0020913B02309121
:1022F0003C02A901440F551FE0914A03F0914B03A2
:10230000E40FF51F90E0962B918380838091380233
:102310009091390201969093390280933802892B6B
:1023200021F410923702109236022F5F3F4F309304
:102330003C0220933B020E946E0B811109C084E095
:1023400080933A0280913B0290913C020C94A10B45
:10235000E0913402F09135020994A29FB001B39F3D
:10236000C001A39F700D811D1124911DB29F700D9E
:0C237000811D1124911D0895F894FFCFE9
:10237C005FB400864A03EB00000000000000AA5581
:10238C00016EA02B0100006D010000141000006D07
:10239C00010000E2050000830F000055026301E616
:1023AC000233011401001401001401001401001483
:1023BC0001001401001401001401001401001401A7
:1023CC000014010014010014010014010014010098
:1023DC001401001000040A05001405140113027303
:1023EC00015B02000001000000000100040000027B
:1023FC0000000000010004000004000000000100C7
:10240C00040000080000000001000400001000009F
:10241C000000010004000020000000000100040086
:10242C0000400000000001000400008000000000DB
:10243C000100040000000100000001000400000085
:10244C000200000001000400000004000000010074
:10245C00040000000800000001000400000010004F
:10246C000000010004000000200000000100040036
:10247C00000040000000010004000000800000008B
:10248C000100041000803300070013003500900099
:06249C003F1C0B050301CB
:00000001FF
